:020000040800F2
:1000000040B900206102000885760008154E0008FE
:10001000497600082F160008A98B00080000000090
:10002000000000000000000000000000A101000826
:10003000251F000800000000FD0100084D81000898
:100040007B0200087B0200087B0200087B0200089C
:100050007B0200087B0200087B0200087B0200088C
:100060007B020008271F0008311F00087B020008E0
:100070007B0200087B0200087B0200087B0200086C
:100080007B0200087B0200087B020008451600087E
:10009000351600087B0200087B0200083B1F0008A1
:1000A0007B0200087B0200087B0200087B0200083C
:1000B000518200087B0200087B0200087B020008D6
:1000C0007B0200087B0200087B0200087B0200081C
:1000D0007B020008C18A00087B0200087B0200083E
:1000E0007B0200087B0200087B0200087B020008FC
:1000F0007B0200087B0200087B0200087B020008EC
:100100007B0200087B0200087B0200087B020008DB
:100110007B0200087B0200087B0200087B020008CB
:100120007B0200087B0200087B0200087B020008BB
:100130007B0200087B0200087B0200087B020008AB
:100140007B0200087B0200087B0200087B0200089B
:100150007B0200087B0200087B020008D18A0008AD
:100160007B0200087B0200087B0200087B0200087B
:100170007B0200087B0200087B02000800000000F0
:100180007B0200087B020008DFF810D000F076FF49
:1001900000480047659F0008AFF3008040B9002089
:1001A0002C4B19680868B0E8F04F80F30988BFF35A
:1001B0006F8F4FF0000080F311887047000000003F
:1001C00008480068006880F308884FF0000080F35A
:1001D000148862B661B6BFF34F8FBFF36F8F00DF35
:1001E00000BF00BF08ED00E0DFF80C00016841F43B
:1001F00070010160704700BF88ED00E0EFF30980F7
:10020000BFF36F8F134B1A681EF0100F08BF20ED5D
:10021000108A20E9F04F106009B44FF0500080F3CD
:100220001188BFF34F8FBFF36F8F0AF0BBFF4FF002
:10023000000080F3118809BC19680868B0E8F04F25
:100240001EF0100F08BFB0EC108A80F30988BFF3CE
:100250006F8F70477C040020EFF30580704700002B
:100260000648804706480047FEE7FEE7FEE7FEE750
:10027000FEE7FEE7FEE7FEE7FEE7FEE73582000861
:10028000890100089FED1A1AF5EE000A40EE010AF6
:10029000BDEEE00AF5EEC00A10EE100AF1EE10FA1B
:1002A00038BF401E00EE100A1349F7EE001AB8EEF0
:1002B000C00A30EEC00ADFED0F0A20EE200AFCEE85
:1002C000C00A10EE900AC0F3080000EE900A01EB9D
:1002D0008000F8EE600A90ED011A70EE600A90ED71
:1002E000000A71EEE01A21EE800A00EE810A7047E2
:1002F00083F9223E0000004410C10008B5EEC00A98
:10030000F1EE10FA07D2DFED1E0AB4EEE00AF1EECC
:1003100010FAA8BF7047DFED1B0AB5EEC00A60EE09
:10032000200ABDEEE01A11EE100AF1EE10FA38BF05
:10033000401E00EE100A1549F7EE001AB8EEC00A8A
:1003400030EEC00ADFED100A60EE200ABCEEE00AD3
:1003500010EE100AC0F3080000EE100A01EB800056
:10036000B8EE400A90ED011A70EEC00A90ED000A56
:1003700071EEE01A21EE800A00EE810A704700005B
:10038000CD024CB483F9223E0000004410C10008A5
:1003900070B405880E884468D1F804C05368B5422B
:1003A00008D140884988884201BF11888D42518810
:1003B000884203D070BC6FF00200704705FB00F16B
:1003C000880827D094ED001ADCED000A94ED010AAC
:1003D000DCED011A31EE201AD4ED020A70EE211A7A
:1003E0009CED020A83ED001AC3ED011A94ED031A85
:1003F000DCED031A30EE800A401E71EE210A83ED17
:10040000020A04F11004C3ED030A03F110030CF116
:10041000100CD7D111F0030030D0B0F1004F30D222
:1004200000282BDD211F1B1FACF1040210F0010F6F
:100430000AD091ED010AD2ED010A091D121D30EE1C
:10044000200A83ED010A1B1D400817D091ED010A17
:10045000D2ED010A401E30EE200A83ED010A91ED33
:10046000020AD2ED020A01F1080102F1080230EE9F
:10047000200A83ED020A03F10803E7D170BC0020D3
:100480007047B4EC010A401EFCEC010A30EE200A71
:10049000A3EC010AF5D1F1E7018042804360704787
:1004A0002DE9F34F84B004984068009048680190AB
:1004B0000498B0F800E04588DFEDFE0A00200290C5
:1004C000B0EE600AAE4506D108884988884204BF6C
:1004D0007146864504D06FF0020006B0BDE8F08F8B
:1004E00001985FEA010C18BFB7EE001A3DD000BFBB
:1004F000BEEB0C0117D0B1F1004F80F01F82002934
:1005000011DD021F11F0010F1CBFC2ED010A121D07
:100510004B1006D0C2ED010AC2ED020A08325B1E82
:10052000F8D100EB8100BCF10102A0EC011A19D056
:10053000B2F1004F80F00882002A13DD031F12F091
:10054000010F1CBFC3ED010A1B1D511008D000BFD5
:10055000C3ED010AC3ED020A491E03F10803F7D1F6
:1005600000EB8200BCF1010CC2D14FF000080395F2
:10057000002D14BFB0EE602A002000F0BF8100BF44
:10058000009908FB05F001EB800B0199DBED002AD7
:1005900001EB80000346F0EE421AC64552D9AEEB9D
:1005A0000802ABEB850112F0010F17D001EB8501BA
:1005B00091ED000AB5EEC00AF1EE10FA07DDB4EED7
:1005C000E10AF1EE10FA09DDF0EE401A06E0B1EEB4
:1005D000400AF4EEC01AF1EE10FAF5D3521031D001
:1005E00001EB850C9CED000AB5EEC00AF1EE10FAA5
:1005F00005DDB4EEE10AF1EE10FA09DD06E0B1EE38
:10060000400AF4EEC01AF1EE10FA01D2F0EE401AF0
:1006100001EBC50191ED000AB5EEC00AF1EE10FA4A
:1006200005DDB4EEE10AF1EE10FA09DD06E0B1EE07
:10063000400AF4EEC01AF1EE10FA01D2F0EE401AC0
:10064000521ECDD1F5EEC01AF1EE10FA00F0738112
:10065000F5EEC02A0126F1EE10FA0099D4BFB1EEF2
:10066000620AB0EE620AB4EE610AF1EE10FA1CBF43
:10067000AEEB0802B2F1010C47D005FB08F201EB2A
:10068000820292ED001A00BFB0EE410A05FB06F4AB
:10069000B5EEC00A00EB8404F1EE10FACCBFF0EE28
:1006A000400AF1EE400AF4EE610AF1EE10FA28D1A8
:1006B000B5EB080C11D0BCF1004F7DD2BCF1000F9E
:1006C0000BDD00BF92ED000AD1ED000ABCF1010C78
:1006D000E2EC010AA1EC010AF4D129000ED0B1F13B
:1006E000004F6AD2002909DD94ED000AD0ED000A1E
:1006F000491EE4EC010AA0EC010AF5D101200290A8
:100700000BE0761CBCF1010CBED10298012804D08C
:10071000F5EEC02AF1EE10FA7ED09BED000AB5EBA3
:1007200008009A465946064622D0B0F1004F74D2CE
:1007300000281DDD091F10F0010F06D0F0EE400A61
:1007400080EEA01A81ED011A091D401010D000BFE3
:10075000D1ED010A401E80EE801A81ED011A91ED63
:10076000021AC1EE000AC1ED020A01F10801EFD13F
:10077000280026D0B0F1004F7ED2002821DDAAF15A
:10078000040110F0010F06D0D1ED010A80EE801AAD
:1007900081ED011A091D401013D000BFD1ED010AEF
:1007A000401E80EE801A81ED011AD1ED020A80EE22
:1007B000801A81ED021A01E0CBE0D6E001F10801D8
:1007C000ECD1DDE900124FF000095FEA0E0773D0AB
:1007D000C14504BF01EB860102EB850274D091EDA7
:1007E000000ADC465046331E35D01C46B6F1004F99
:1007F0007ED2002C2FDD0B1FABF1040C16F0010F85
:100800000FD0F0EE400ADCED011AB0EE601A00EEF7
:10081000E11A83ED011A01E08DE0B1E01B1D0CF13E
:10082000040C741015D000BFD3ED010A9CED011A21
:1008300040EE410AC3ED010AD3ED020A9CED021A13
:100840000CF1080C40EE410AC3ED020A0833641EA5
:10085000EAD101EB86012B0036D0B3F1004F72D202
:10086000002B31DDA2F1040CAAF1040013F0010FFA
:100870000CD0DCED010A00E08BE090ED011A001DC8
:1008800040EE410ACCED010A0CF1040C5C1019D0C9
:10089000DCED010A90ED011A40EE410ACCED010AAF
:1008A000DCED020A90ED021A083040EE410ACCED70
:1008B000020A03E0000000000DE005E0641E0CF1F8
:1008C000080CE5D102EB830201EB88017F1E09F1E0
:1008D00001097FF47DAF009808F10108001D009028
:1008E0000398401E03907FF44BAE0299012900E06B
:1008F00058E004BF06B0BDE8F08F00BFB5EEC00AF7
:10090000F1EE10FA7FF4E9AD04990EFB05F3002B2C
:100910004A684FF000010BD902EB810C9CED000AF4
:10092000B5EEC00AF1EE10FA02D1491C8B42F3D8A1
:100930008B427FF4D2AD6FF00400CEE5E0EC010A0B
:10094000491EFBD1EFE538E0E0EC010A521EFBD175
:1009500008E692ED000AD1ED000ABCF1010CE2ECD0
:10096000010AA1EC010AF4D1B7E694ED000AD0ED3A
:10097000000A491EE4EC010AA0EC010AF5D1BDE62B
:10098000D1ED000A401E80EE801AA1EC011AF7D1C9
:10099000EEE6D3ED000A401E80EE801AA3EC011AA9
:1009A000F7D10EE7BCEC011AD1ED000A5B1E40EE58
:1009B000410AE1EC010AF5D14DE7B0EC011AD2EDA4
:1009C000000A5B1E40EE410AE2EC010AF5D17BE72A
:1009D0002DE9F04F82B04668536801930588478837
:1009E0004B88002000900888874201BFB2F800C001
:1009F0006545528893421EBF6FF0020002B0BDE809
:100A0000F08F9FED412A4FEA970EC7F3400B00BFCE
:100A1000DDE9000202EB800A4A6898464FF00009BF
:100A2000B0EE420AB4465FEA0E0025D092ED001AFD
:100A3000DCED001A02EB8302DCED010A01EE810A13
:100A400092ED001A02EB8302401ED2ED001A02EB77
:100A5000830200EE810A9CED021ADCED030A000419
:100A60000CF1100C000C01EE210A92ED001A02EBC1
:100A7000830200EE810AD9D117F0030026D0ACF131
:100A80000404A2EB830210F0010F08D002EB8302F2
:100A9000D4ED010A92ED001A241D00EE810A5FEAEE
:100AA0000B0013D002EB830CD4ED010A9CED001A6D
:100AB00002EBC302401E00EE810AD4ED020A92ED61
:100AC000001A04F1080400EE810AEBD109F10100DB
:100AD000AAEC010A1FFA80F9486800EB8902A8F124
:100AE00001001FFA80F8B8F1000F99D1009806EBC9
:100AF0008706184480B20090681E05042D0C87D12B
:100B000002B00020BDE8F08F0000000070B405883E
:100B10000E884468D1F804C05368B54208D14088B3
:100B20004988884201BF11888D425188884203D08C
:100B300070BC6FF00200704705FB00F1880827D0F9
:100B400094ED001ADCED000A94ED010ADCED011AC7
:100B500031EE601AD4ED020A70EE611A9CED020AC1
:100B600083ED001AC3ED011A94ED031ADCED031AAC
:100B700030EEC00A401E71EE610A83ED020A04F1F4
:100B80001004C3ED030A03F110030CF1100CD7D1CC
:100B900011F0030030D0B0F1004F30D200282BDD2F
:100BA000211F1B1FACF1040210F0010F0AD091EDC0
:100BB000010AD2ED010A091D121D30EE600A83ED13
:100BC000010A1B1D400817D091ED010AD2ED010A60
:100BD000401E30EE600A83ED010A91ED020AD2ED6B
:100BE000020A01F1080102F1080230EE600A83ED09
:100BF000020A03F10803E7D170BC00207047B4EC8F
:100C0000010A401EFCEC010A30EE600AA3EC010A66
:100C1000F5D1F1E72DE9F04F02884768B0F802807E
:100C20004888D1F8049082B04FF0000A16468242FC
:100C300007BF098888456FF0020002B018BFBDE801
:100C4000F08F4FEA980B02EB42000190C8F340008E
:100C5000CDF8000009EB8A01BBF1000F33D00198F9
:100C600001EB820C01EB80043B46E64601EBC2053A
:100C70004FEA0B0093ED000A401E81ED000A93ED50
:100C8000010A01EB02118CED000A93ED020A0CEB54
:100C9000021C85ED000A93ED030A05EB021584EDB5
:100CA000000A04EB021403F11003E3D10EEB8200FF
:100CB00000EB820000EB8201ABF10100504307EB37
:100CC0000B1701EB001118F0030C21D03B1FA1EB17
:100CD00082011CF0010F06D093ED010A01EB8201A5
:100CE0001B1D81ED000A009880B100BF93ED010A41
:100CF00001EB820401EBC20184ED000A93ED020ACC
:100D0000401E81ED000A03F10803EFD107EB8C07C9
:100D10000AF101001FFA80FA701E0604360C99D100
:100D200002B00020BDE8F08F2DE9F05F05460020FD
:100D300092469B4688460646814640241BE028464C
:100D400041464746224600F0F4F853465A46C01A38
:100D5000914110D311461846224600F0DBF82D1AB7
:100D600067EB01084F4622460120002100F0D2F82F
:100D700017EB00094E41201EA4F10104DFDC4846B8
:100D800031462A464346BDE8F09F40EA01039B07EF
:100D900003D009E008C9121F08C0042AFAD203E0F0
:100DA00011F8013B00F8013B521EF9D27047D2B254
:100DB00001E000F8012B491EFBD270470022F6E744
:100DC00010B513460A4604461946FFF7F0FF2046C1
:100DD00010BD2DE9FE4F81EA030404F0004421F028
:100DE000004100944FF0000B23F0004350EA01044F
:100DF0005ED052EA03045BD0C3F30A54C1F30A5530
:100E00002C44A4F2F3340194A0FB0254C1F3130167
:100E100041F48011C3F3130343F4801301FB024434
:100E200000FB034E840A970A44EA815447EA835739
:100E3000A4FB076802958D0A05FB07854FEA932CF2
:100E400004FB0C542705029D4FEA065847EA163763
:100E5000B5EB08056EEB070C870E920E47EA81177B
:100E600042EA8312A7FB0201B6EB0B0164EB00041C
:100E70002B0D43EA0C335E1844EB1C50DA46514606
:100E8000E7FB0201C5F313044FEA0B3343EA1453A3
:100E90004FEA0432019C43EA0603A4F10C040294D5
:100EA000009CCDE900B400F09AF803B0BDE8F08FE3
:100EB00000200146F9E700F0004230F000400AD07F
:100EC000C10D01F56071C0F3160042EA0151C2087C
:100ED00040071143704700200146704701F000436E
:100EE00030B421F0004150EA010206D00A0DA2F50B
:100EF0006072C1F31301002A02DC30BC002070478D
:100F0000440F44EAC104C100E01830BC00EBC250F9
:100F100000F01FB8202A04DB203A00FA02F100207A
:100F200070479140C2F1200320FA03F31943904027
:100F30007047202A04DB203A21FA02F00021704792
:100F400021FA02F3D040C2F1200291400843194631
:100F500070470029A8BF7047401C490008BF20F017
:100F60000100704710B4B0FA80FC00FA0CF050EAAF
:100F7000010404BF10BC704749B1CCF1200421FA30
:100F800004F411FA0CF118BF012121430843A3EB2B
:100F90000C01CB1D4FEA00614FEA102042BF002038
:100FA00010BC704700EBC35010440029A4BF10BC14
:100FB0007047401C490008BF20F0010010BC70477A
:100FC00010B5141E73F1000408DA401C41F1000151
:100FD00092185B411A4301D120F0010010BD2DE9A8
:100FE000F04D92469B4611B1B1FA81F202E0B0FA9F
:100FF00080F220329046FFF78DFF04460F4640EA0C
:101000000A0041EA0B0153465A46084313D01146E1
:1010100053EA010019D0C8F140025046FFF789FF9A
:1010200005460E46504659464246FFF773FF0843B1
:1010300005D0012004E020463946BDE8F08D0020AF
:10104000054346EAE0762C4337430A986305E40AF1
:10105000A0EB08000022FD0A44EA47540A3002D5FA
:1010600000200146E9E7010510196941DDE908455D
:1010700000196941BDE8F04DA2E70000064C074D9C
:1010800006E0E06840F0010394E807009847103458
:10109000AC42F6D3FFF77CF82CC900084CC9000815
:1010A00070B58C1810F8015B15F0070301D110F82A
:1010B000013B2A1106D110F8012B03E010F8016B57
:1010C00001F8016B5B1EF9D12B0705D40023521EDA
:1010D0000DD401F8013BFAE710F8013BCB1A921C42
:1010E00003E013F8015B01F8015B521EF9D5A14240
:1010F000D8D3002070BD000010B501221021024895
:1011000001F06EFF10BD00000000024010B500228B
:101110001021024801F064FF10BD000000000240F1
:1011200010B501221146024801F05AFF10BD00001F
:101130000004024010B500220121024801F050FFD6
:1011400010BD00000004024010B50446FFF7DEFFAA
:10115000922000F0A3F906229549122000F07EF9B2
:10116000FFF7CAFF92484078000200B29049097820
:101170000843904908800846B0F9000000EE100AC4
:10118000B8EEC00A8C48D0ED000A20EE200AD4ED5B
:10119000080A20EE200A84ED000A8548C078000283
:1011A00000B2834989780843824908800846B0F92B
:1011B000000000EE100AB8EEC00A7F48D0ED000A29
:1011C00020EE200AD4ED080A20EE200A84ED010A60
:1011D00077484079000200B275490979084375499A
:1011E00008800846B0F9000000EE100AB8EEC00A08
:1011F0007148D0ED000A20EE200AD4ED080A20EE56
:10120000200A84ED020AFFF795FF082268490020B2
:1012100000F024F9FFF784FF654800780F284FD1CC
:1012200066480078F0B36248C078000200B26049B6
:10123000897808435F49088094ED090A0846B0F9A7
:10124000000000EE900AF8EEE00A5D4890ED001A0A
:1012500010EE810A84ED030A55484079000200B27D
:101260005349097908435349088094ED0A0A08460E
:10127000B0F9000000EE900AF8EEE00A504890ED58
:10128000001A10EE810A84ED040A4948C079000270
:1012900000B24749897908434649088094ED0B0A12
:1012A000084600E00DE0B0F9000000EE900AF8EE0C
:1012B000E00A434890ED001A10EE810A84ED050A19
:1012C00044E03B48C078000200B2394989780843BD
:1012D000384908800846B0F9000000EE100AB8EE60
:1012E000C00A3748D0ED000A20EE200A84ED030A38
:1012F0002F484079000200B22D49097908432D4951
:1013000008800846B0F9000000EE100AB8EEC00AE6
:101310002B48D0ED000A20EE200A84ED040A244870
:10132000C079000200B22249897908432149088026
:101330000846B0F9000000EE100AB8EEC00A2048D6
:10134000D0ED000A20EE200A84ED050AFFF7DEFE4C
:10135000A22000F0A3F802221549222000F07EF816
:10136000FFF7CAFE12480078C0001149497840EAE8
:101370006110104908800846B0F90000B0F5806F90
:1013800005DB08460088A0F5006000B20880094827
:10139000B0F9000000EE100AF8EEC00AB4EE001A30
:1013A000B3EE070A00EE810A84ED070A10BD0000C3
:1013B000020100200A010020C4000020D400002007
:1013C000C800002070B504460D461C48046000208B
:1013D0001B49087007F0DCFE1949097808431849D1
:1013E000087007F08BFF1649097808431449087004
:1013F0001DB1144800F056F91CE09FED130A114886
:1014000080ED090A9FED110A80ED0A0A9FED0F0A8F
:1014100080ED0B0A9FED0E0A80ED0C0A90ED0C0A90
:10142000DFED0C0A80EE801A80ED081A9FED0A0AA3
:1014300080ED060A0248007870BD00000C01002013
:10144000CE00002058140020AC38223BB016CE3914
:101450003F161B41C3F51C410000204270B50646F3
:101460000C46154646F0800000F018F806E05520BE
:1014700000F014F82070641C681EC5B2002DF6D16F
:1014800070BD70B504460D4644F0800000F006F8CB
:10149000552000F003F8287070BD000001B582B03F
:1014A0004FF47A70012301AA02A900900348006852
:1014B00002F05CFB9DF804000EBD00000C01002052
:1014C00070B505460C462846FFF7E8FF2046FFF7B3
:1014D000E5FF70BDD2ED020A92ED021AB6EE000AE7
:1014E00000EEC10AD2ED030A92ED031A00EEC10A22
:1014F000D0ED000A20EE200AD2ED010A92ED021A88
:1015000060EE810A92ED001AD2ED031A41EE610AF3
:1015100090ED011A00EE810AD2ED010A92ED031A54
:1015200060EE810A92ED001AD2ED021A41EE210A14
:1015300090ED021A00EE810AF0EE000A20EE200A79
:1015400081ED000A92ED010AD2ED020A20EE200A96
:10155000D2ED000A92ED031A00EE810AD0ED000AE6
:1015600060EE200A92ED011AD2ED011AB6EE000AE1
:1015700001EE610AD2ED031A92ED032AB0EE401A91
:1015800001EEC21AD0ED011AB0EE600A01EE210A96
:10159000D2ED020A92ED031A60EE810A92ED001A72
:1015A000D2ED011A41EE610A90ED021A00EE810AB5
:1015B000F0EE000A20EE200A81ED010A92ED010A08
:1015C000D2ED030A20EE200AD2ED000A92ED021AB3
:1015D00000EEC10AD0ED000A20EE200AD2ED020A88
:1015E00092ED031A60EE810A92ED001AD2ED011A13
:1015F00041EE210A90ED011A00EE810A92ED011AE6
:10160000D2ED011AF6EE000A41EE610A92ED021ADD
:10161000D2ED021A41EE610A90ED021A00EE810A43
:10162000F0EE000A20EE200A81ED020A704700BFAA
:10163000FEE7000010B5024800F0FCFF10BD0000FE
:10164000AC0B002010B5024800F0F4FF10BD000004
:10165000AC0B0020F8B507460C4615461E464FF465
:1016600000700D49086000208860C860082008618B
:10167000380A0A4908704F70200A8870CC70280A0E
:1016800008714D71300A8871CE716B460A46024965
:10169000034800F0D4FDF8BD34140020B900002048
:1016A000AC0B002070B52DED048B88B004460020F3
:1016B0000690079000F070FBFE4880ED000A00BF26
:1016C00000F06AFBFB48D0ED000A30EE600AF2EE53
:1016D000040AB4EEE00AF1EE10FA14DD9FEDF60A0A
:1016E00084ED090A9FEDF50A84ED0A0A9FEDF30ADD
:1016F00084ED0B0A9FEDF20A84ED0C0A9FEDF10ACE
:1017000084ED060A55E29FEDF00A00F001FB9FED23
:10171000EF0A84ED0C0A9FEDED0A84ED090A9FEDB6
:10172000EB0A84ED0A0A9FEDE90A84ED0B0A002614
:1017300073E1FFF7EBFC9220FFF7B0FE062206A94B
:101740001220FFF78BFEFFF7D7FC9DF8190000026F
:1017500000B29DF8181040EA010500EE105AB8EEEC
:10176000C00ADB48D0ED000A20EE200A84ED000A12
:101770009DF81B00000200B29DF81A1040EA010516
:1017800000EE105AB8EEC00AD148D0ED000A20EEA3
:10179000200A84ED010A9DF81D00000200B29DF8A8
:1017A0001C1040EA010500EE105AB8EEC00AC84805
:1017B000D0ED000A20EE200A84ED020AD4ED000AE2
:1017C00060EEA00A94ED011AD4ED011A41EE210A4F
:1017D00094ED021AD4ED021A41EE210AB0EE600A2D
:1017E00007F08CFCB0EE408A94ED0C0A30EE080A4B
:1017F00084ED0C0AFFF79EFC082206A90020FFF7E3
:101800002DFEFFF78DFC9DF818000F2850D19DF894
:101810001B00000200B29DF81A1040EA010500EE1C
:10182000105AB8EEC00AAB48D0ED000A20EE200AEC
:1018300084ED030A94ED090AD4ED030A30EE200A80
:1018400084ED090A9DF81D00000200B29DF81C10ED
:1018500040EA010500EE105AB8EEC00A9D48D0EDEE
:10186000000A20EE200A84ED040A94ED0A0AD4ED61
:10187000040A30EE200A84ED0A0A9DF81F000002D7
:1018800000B29DF81E1040EA010500EE105AB8EEB5
:10189000C00A9048D0ED000A20EE200A84ED050A27
:1018A00094ED0B0AD4ED050A30EE200A84ED0B0A04
:1018B00006BBF0EE488AB0EE489A002017E004F12B
:1018C0000C0101EB800191ED000A03A901EB8001FD
:1018D00081ED000A04F10C0101EB800191ED000A99
:1018E000694601EB800181ED000A411CC8B2032862
:1018F000E5DB49E0B4EEE88AF1EE10FA01DDF0EE46
:10190000488AB4EEC98AF1EE10FA01D2B0EE489AD4
:10191000002037E004F10C0101EB800191ED000A99
:1019200003A901EB8001D1ED000AB4EEE00AF1EE6B
:1019300010FA0ADD04F10C0101EB800191ED000ABF
:1019400003A901EB800181ED000A04F10C0101EB18
:10195000800191ED000A694601EB8001D1ED000A9A
:10196000B4EEE00AF1EE10FA0AD204F10C0101EB38
:10197000800191ED000A694601EB800181ED000ACA
:10198000411CC8B20328C5DB38EEC90A524880EDB5
:10199000000A002012E003A901EB800191ED000A8A
:1019A000694601EB8001D1ED000A30EE600A4B4937
:1019B00001EB800181ED000A411CC8B20328EADB7B
:1019C000454890ED000AF6EE000AB4EEE00AF1EEAA
:1019D00010FA1BDC414890ED000ADFED410AB4EE3D
:1019E000E00AF1EE10FA11DC90ED010ADFED3C0A9D
:1019F000B4EEE00AF1EE10FA08DC90ED020ADFED39
:101A0000380AB4EEE00AF1EE10FA00DD0AE09FEDCC
:101A1000350A00F07DF9701C86B233480088864292
:101A2000FFF687AE00BFD4ED0C0A2F48008800EE09
:101A3000100AB8EE400A80EE801A84ED0C1A0020DD
:101A400015E004F1240101EB8001D1ED000A2649E3
:101A5000098800EE101AB8EE400A80EE801A04F1F0
:101A6000240101EB800181ED001A411CC8B203285A
:101A7000E7DBFFF74BFBA220FFF710FD022206A9D0
:101A80002220FFF7EBFCFFF737FB9DF81800C000A2
:101A90009DF8191040EA6115B5F5806F02DBA5F5D8
:101AA000006005B200EE105AF8EEC00AB4EE001A5B
:101AB0001CE00000FC000020AC38223BB016CE3900
:101AC0003F161B41000020420AD7A33B0000000044
:101AD000C4000020C8000020D00000204C140020CA
:101AE0009A99193E6F12033A00010020B3EE070ADB
:101AF00000EE810A84ED060A34480088401C00B2DA
:101B000032490880324890ED000AF6EE000AB4EE41
:101B1000E00AF1EE10FA3FF7D3AD94ED0C0ADFEDD9
:101B20002D0A30EE600AB0EEC00AF6EE000AB4EEFE
:101B3000E00AF1EE10FAEEDC274890ED000A5FEDC6
:101B4000180AB4EEE00AF1EE10FAE4DC90ED010AB6
:101B50005FED1D0AB4EEE00AF1EE10FADBDC90ED69
:101B6000020A5FED210AB4EEE00AF1EE10FAD2DCCF
:101B700094ED090AB0EEC00ADFED180AB4EEE00AEF
:101B8000F1EE10FAC7DC94ED0A0AB0EEC00ADFED00
:101B9000130AB4EEE00AF1EE10FABCDC94ED0B0A85
:101BA000B0EEC00ADFED0D0AB4EEE00AF1EE10FA75
:101BB000B1DC00BF94ED0C0ADFED090A80EE801A5B
:101BC00084ED081A08B0BDEC048B70BDD60000206F
:101BD000D0000020CDCC1C414C1400200AD7233C5F
:101BE000C3F51C4110B5C82001F0DEF808F088F9F3
:101BF000044607F09BFD204607F07EFD10BD000067
:101C00000146087810381823B0FBF3F20848805CCE
:101C1000C865032A05D908686FF30900001D8865A7
:101C200003E008686FF309008865886D704700005D
:101C300008C10008014600208A6A8B69CBB932B11D
:101C4000012A0DD0022A03D0032A10D10EE000BFD2
:101C5000CB6A03F08073B3F1807F00D1012007E0ED
:101C6000CB6AB3F1C07F00D1012001E000E000BFEA
:101C700034E08B69B3F5005F1AD132B1012A07D085
:101C8000022A03D0032A11D10AE000BF01200EE08E
:101C9000CB6A03F08073B3F1807F00D1012006E0AE
:101CA000CB6AB3F1C07F00D1012000E000BF15E096
:101CB00032B1012A05D0022A04D0032A0CD103E054
:101CC00000BF00BF012008E0CB6A03F08073B3F1CE
:101CD000807F00D1012000E000BF00BF70470000FE
:101CE00008B508484068009007490098096888428C
:101CF00004D206480068401C044908600249009864
:101D0000086008BD001000E0800000207C0000207A
:101D10000C494868F0EE400A00BF0A494968091AB0
:101D200001EE101AF8EE411A074991ED001AB8EECB
:101D3000411A20EE811AF4EEC11AF1EE10FAECD33A
:101D400070470000001000E07000002010B52DED7D
:101D5000028B82B004460E484068019020680199C9
:101D6000081A00EE100AF8EE400A0A4890ED000A40
:101D7000B8EE400A80EE801AB0EE418A01982060E9
:101D8000FFF7AEFFB0EE480A02B0BDEC028B10BD0B
:101D9000001000E07000002010B52DED028B00F067
:101DA00059F80F4890ED000AB8EE400A808800EE1E
:101DB000900AF8EE600A9FED0B1A00EE810A0848BF
:101DC000C08800EE900AF8EE600A9FED071A00EE58
:101DD000810AB0EE408AB0EE480ABDEC028B10BD1D
:101DE000680000206F12833ABD37863512490968B2
:101DF00041F08071104A11600021104A5160114673
:101E0000096841F0010111600D4941430D4A11601B
:101E1000114609684FF47A72B1FBF2F10A4A116077
:101E200008490968064AB1FBF2F1084A116000212D
:101E3000074A116070470000FCED00E0001000E070
:101E400040420F0070000020740000207800002045
:101E50007C00002038B5294840680090FFF740FF1B
:101E6000274800684FF0FF31A0FB01310098181897
:101E700041F10001234A03C223480023214902689B
:101E800003C9FEF751FF214A03C220480CC81E486F
:101E900000680024A2FB001503FB005002FB0402B3
:101EA0001848D0E90030591A60EB0200184AC2E91C
:101EB00000101648006817490860174800231449A5
:101EC000026803C9FEF730FF1249888008468088FF
:101ED0001149096841430E48D0E90030591A60F1B0
:101EE00000000E4AC2E900100D4800230B490268A9
:101EF00003C9FEF719FF0749C88038BD001000E08C
:101F00007C0000208800002070000020900000204D
:101F1000980000206800002074000020A00000202D
:101F200078000020704710B5082000F053FF10BD66
:101F300010B5102000F04EFF10BD10B5202000F0AD
:101F400049FF402000F046FF802000F043FF10BD15
:101F5000D2ED020A92ED021AB6EE000A00EEC10AB4
:101F6000D2ED030A92ED031A00EEC10AD0ED000A89
:101F700020EE200AD2ED010A92ED021A60EE810AEB
:101F800092ED001AD2ED031A41EE210A90ED011AEA
:101F900000EE810AD2ED010A92ED031A60EE810A89
:101FA00092ED001AD2ED021A41EE610A90ED021A8A
:101FB00000EE810AF0EE000A20EE200A81ED000A10
:101FC00092ED010AD2ED020A20EE200AD2ED000ABB
:101FD00092ED031A00EEC10AD0ED000A60EE200A6D
:101FE00092ED011AD2ED011AB6EE000A01EE610A75
:101FF000D2ED031A92ED032AB0EE401A01EEC21A96
:10200000D0ED011AB0EE600A01EE210AD2ED020A0B
:1020100092ED031A60EE810A92ED001AD2ED011AD8
:1020200041EE210A90ED021A00EE810AF0EE000A5C
:1020300020EE200A81ED010A92ED010AD2ED030A99
:1020400020EE200AD2ED000A92ED021A00EE810A7B
:10205000D0ED000A20EE200AD2ED020A92ED031A1A
:1020600060EE810A92ED001AD2ED011A41EE610A8A
:1020700090ED011A00EE810A92ED011AD2ED011ADB
:10208000F6EE000A41EE610A92ED021AD2ED021A52
:1020900041EE610A90ED021A00EE810AF0EE000AAC
:1020A00020EE200A81ED020A7047704770B50020CB
:1020B000002300220024DFED530AB0EE600A002165
:1020C0000EE0514D6D5C3D2D01D14D1CE8B24E4DE1
:1020D0006D5C212D02D14D1EEBB203E04D1CE9B227
:1020E000C829EEDB00BF4849095C2D2902D1411CFB
:1020F000C8B20124191A491CCAB2042A20D1424983
:10210000095C303900EE901AF8EEE00A3E4D811C71
:10211000695C303901EE101AB8EEC11ADFED3B1AD6
:1021200041EE210AC11C695C303901EE101AB8EE8B
:10213000C11ADFED371A41EE210AB0EE600A5AE00B
:10214000052A27D1304D411C695C30392D5C303D6A
:1021500005EB850501EB450100EE901AF8EEE00A6B
:10216000294DC11C695C303901EE101AB8EEC11A54
:10217000DFED261A41EE210A011D695C303901EEBE
:10218000101AB8EEC11ADFED221A41EE210AB0EEA4
:10219000600A30E0062A2ED11B49095C30396425DB
:1021A00011FB05F5184E411C715C303901EB8101C2
:1021B00005EB4105811C715C3039294400EE901A11
:1021C000F8EEE00A3546011D695C303901EE101A5F
:1021D000B8EEC11ADFED0D1A41EE210A411D695C0E
:1021E000303901EE101AB8EEC11ADFED091AB0EE5F
:1021F000600A01EE210A012C03D1F1EE400AB0EE93
:10220000600A70BD00000000990D0020CDCCCC3DCF
:102210000AD7233C10B5024692F82030012B01D09A
:10222000022B06D1106840690843146860610020E1
:1022300010BD506A40F4802050620120F8E7F0B5EC
:1022400004460D461E4694F8207020688368A868EE
:1022500000B900E000BF012F01D0022F7CD103F0B4
:10226000806030B903F0006018B903F08050002896
:1022700073D0C3F30161022905D9606A40F40000FC
:1022800060620120F0BD012088403060A86860B91C
:10229000B5F800C0E86840EA4C5C206800F5C07002
:1022A00000EB0110C0F800C00FE0D5E901C040EA22
:1022B000CC00D5F80CC040EA0C00D4F800C00CF5F6
:1022C000C07C0CEB011CCCF80000D5F810C02068D5
:1022D00000F5C07000EB0110C0F804C0287D012893
:1022E0000ED1206800F5C07000EB0110406840F48A
:1022F000807C206800F5C07000EB0110C0F804C0BD
:10230000D079000692F806C040EA0C4092F805C069
:1023100040EA0C2C10794CEA000C206800F5C070E3
:1023200000EB0110C0F80CC0D078000692F802C093
:1023300040EA0C4092F801C040EA0C2092F800C03C
:1023400040EA0C00D4F800C00CF5C07C0CEB011C7A
:10235000CCF80800206801E016E00FE000F5C0703E
:1023600000EB0110006840F0010C206800F5C0701F
:1023700000EB0110C0F800C0002083E7606A40F461
:102380000010606201207DE7606A40F48020606296
:10239000012077E7F0B504460A46216894F82050FA
:1023A000012D01D0022D7ED1424901F5007108684E
:1023B00040F001000860086820F47C50086008685C
:1023C000566A40EA06200860107D00F01F060120D2
:1023D00000FA06F3C8699843C861A1F50071D06995
:1023E000C8B9D1F80C029843C1F80C02908880B2A9
:1023F000968940EA064601F51070576940F8376043
:10240000108880B2168940EA064601F510705769B7
:1024100000EBC7004660D069012819D1D1F80C0241
:102420001843C1F80C02908880B2168840EA06462C
:1024300001F51070576940F83760908980B21689AD
:1024400040EA064601F51070576900EBC700466088
:10245000906928B9D1F804029843C1F8040204E055
:10246000D1F804021843C1F80402106928B9D1F860
:1024700014029843C1F8140204E0D1F8140218437E
:10248000C1F81402106A012804D1D1F81C021843C3
:10249000C1F81C02D1F8000220F00100C1F80002CE
:1024A0000020F0BDFFE7606A40F4802060620120F8
:1024B000F7E7000000640040704770B5044694F8E8
:1024C0002050012D01D0022D7DD151B92068C06866
:1024D00000F0030080B9606A40F4001060620120DF
:1024E00070BD2068006900F0030028B9606A40F4FC
:1024F000001060620120F3E7206800F5D87000EB5F
:102500000110006800F004009060906840B92068F5
:1025100000F5D87000EB01100068400D106007E076
:10252000206800F5D87000EB01100068C00850600A
:10253000206800F5D87000EB0110006800F0020080
:10254000D060206800F5D87000EB0110406800F002
:102550000F001061206800F5D87000EB0110406892
:1025600000F47F40000A9061206800F5D87000EB0D
:1025700001104068000C5061206800F5D87000EB35
:10258000011080681870206800F5D87000EB011009
:10259000806800F47F40000A5870206800F5D87009
:1025A00000EB0110806800F47F00000C9870206838
:1025B00000F5D87000EB01108068000ED87020681C
:1025C00000F5D87000E02FE000EB0110C068187132
:1025D000206800F5D87000EB0110C06800F47F405F
:1025E000000A5871206800F5D87000EB0110C0682F
:1025F00000F47F00000C9871206800F5D87000EBA3
:102600000110C068000ED87131B92068C06840F070
:1026100020002668F06005E02068006940F0200096
:102620002668306100205BE7606A40F480206062C9
:10263000012055E72DE9F05F044600252068466932
:102640002068D0F80490206887682068D0F80CA033
:102650002068D0F810B02068D0F8188006F001008B
:10266000002855D007F00100C0B101202168886022
:1026700007F0020018B1204600F0AFFA0EE007F0B4
:10268000040010B145F4006508E007F0080010B13F
:1026900045F4805502E0204600F09EFA07F4807071
:1026A000C8B14FF480702168886007F4007018B1D9
:1026B000204600F094FA0EE007F4806010B145F473
:1026C000005508E007F4006010B145F4804502E0D1
:1026D000204600F083FA07F48030C8B14FF4803010
:1026E0002168886007F4003018B1204600F079FABC
:1026F0000EE007F4802010B145F4004508E007F42F
:10270000002010B145F4803502E0204600F068FA60
:1027100006F0080038B10AF0100020B145F4007549
:1027200010202168C86006F0040040B10AF00800DB
:1027300028B108202168C860204600F0B1F906F0F1
:10274000020038B12068C06800F0030010B12046D4
:1027500000F0A8F906F0400038B10BF0100020B1ED
:1027600045F4806510202168086106F0200040B122
:102770000BF0080028B1082021680861204600F00D
:10278000F9F906F0100038B12068006900F0030084
:1027900010B1204600F0EFF906F4003040B109F026
:1027A000100028B1102021684860204600F0E4F9AC
:1027B00006F4803040B109F0080028B108202168F3
:1027C0004860204600F00EFA06F4004088B309F095
:1027D000040078B306F4807020B108F0010008B15D
:1027E00045F0010506F4007020B108F0020008B1C0
:1027F00045F0020506F4806020B108F0040008B13D
:1028000045F0040506F40060A0B108F0700088B13E
:1028100008F07000402817D006DC10280BD02028C4
:102820000CD0302819D10CE0502810D0602814D1D9
:1028300010E01DE019E045F008050FE045F0100537
:102840000CE045F0200509E045F0400506E045F0C4
:10285000800503E045F4807500E000BF00BF2068FC
:10286000806920F070002168886104202168486038
:102870002DB1606A284360622046FFF71DFEBDE867
:10288000F09F70B504460CB9012070BD94F820008B
:1028900010B9204600F0B0F82068006840F0010050
:1028A0002168086000F0A2FB05460DE000F09EFBE9
:1028B000401B0A2808D9606A40F400306062052095
:1028C00084F820000120E0E72068406800F0010063
:1028D0000028EBD02068006820F002002168086022
:1028E00000F084FB05460DE000F080FB401B0A2849
:1028F00008D9606A40F400306062052084F8200046
:102900000120C2E72068406800F002000028EBD1F7
:10291000207E012806D12068006840F080002168F0
:10292000086005E02068006820F0800021680860E9
:10293000607E012806D12068006840F040002168D0
:10294000086005E02068006820F040002168086009
:10295000A07E012806D12068006840F02000216890
:10296000086005E02068006820F020002168086009
:10297000E07E012806D12068006820F01000216860
:10298000086005E02068006840F0100021680860D9
:10299000207F012806D12068006840F008002168E7
:1029A000086005E02068006820F0080021680860E1
:1029B000607F012806D12068006840F0040021688B
:1029C000086005E02068006820F0040021680860C5
:1029D000D4E9020108432169084361690843616839
:1029E000491E08432168C86100206062012084F804
:1029F0002000002049E7000010B586B004461421ED
:102A000001A8FEF7DBF92349206888423FD100BFC7
:102A1000002000902048006840F000701E490860C7
:102A20000846006800F00070009000BF00BF00BFC3
:102A30000020009018481038006840F0080016493F
:102A4000103908600846006800F00800009000BFD8
:102A500000BF032001900220029000200390032079
:102A600004900920059001A90C4800F0C1F900224A
:102A70000521132000F068FB132000F055FB002215
:102A80000521142000F060FB142000F04DFB06B07F
:102A900010BD00000064004040380240000C0240BD
:102AA0007047000010B58AB0044601AB03AA0021AC
:102AB0002046FFF702FD0398A0F20120072851D21B
:102AC000DFE800F00405060708090A0000BF00BFA0
:102AD00000BF00BF00BF00BF0398401E234908701D
:102AE0000846007800EB8000214931F8100000B260
:102AF0001E49097801EB81011D4A02EB4101088161
:102B00009DF805009DF8041040EA01201749097856
:102B100001EB810122F811009DF807009DF80610D5
:102B200040EA012000B21149097801EB810102EB72
:102B3000410148809DF809009DF8081040EA0120F5
:102B400000B20A49097801EB810102EB410188805A
:102B50009DF80A000549097801EB810102EB41016A
:102B6000887100E000BF00BF0AB010BDC1000020A6
:102B7000D413002070477047704770B5044694F82E
:102B80002000012822D1022084F82000206800685B
:102B900020F001002168086000F028FA05460DE0E9
:102BA00000F024FA401B0A2808D9606A40F400307B
:102BB0006062052084F82000012070BD2068406814
:102BC00000F001000028EBD16062F6E7606A40F493
:102BD000002060620120F0E770477047704770473F
:102BE00070477047704770B50446A56D00F0FEF958
:102BF000064694F83500022808D08020606500BFA2
:102C0000002084F8340000BF012070BD20680068F7
:102C100020F01600216808602068406920F08000DC
:102C200021684861206C08B9A06C28B12068006850
:102C300020F00800216808602068006820F001008A
:102C40002168086010E000F0D1F9801B05280BD93D
:102C500020206065032084F8350000BF002084F840
:102C6000340000BF0320D0E72068006800F00100B6
:102C70000028E8D194F85C103F208840A86001202B
:102C800084F8350000BF002084F8340000BF00BF86
:102C9000BBE7014691F83500022803D08020486543
:102CA00001207047052081F835000868006820F091
:102CB00001000A6810600020F3E700002DE9F041F0
:102CC0000446002500F092F9074614B90120BDE83A
:102CD000F081606A00B100BF022084F8350000BFB7
:102CE000002084F8340000BF2068006820F0010054
:102CF000216808600AE000F079F9C01B052805D9B1
:102D000020206065032084F83500E0E72068006833
:102D100000F001000028EED1206805682148054038
:102D2000D4E901010843E168084321690843616966
:102D30000843A1690843E1690843216A0843054340
:102D4000606A042803D1D4E90B01084305432068D5
:102D500005602068456925F00705606A0543606ADB
:102D600004280DD1A06A0543E06A48B12046FEF769
:102D700061FF28B140206065012084F83500A6E796
:102D8000206845612046FEF73BFF064694F85C103C
:102D90003F208840B06000206065012084F8350045
:102DA000002094E73F8010F070B5044600F01EF953
:102DB00006462546681C10B104480078054400BF4B
:102DC00000F014F9801BA842FAD370BD78040020EB
:102DD0007047000010B5044604480068204020B148
:102DE000024804602046FFF7F3FF10BD143C014089
:102DF000F8B502460B460025002400200021D5E04E
:102E0000012606FA01F51E6806EA0504AC4274D1F3
:102E10001E7906F00306012E04D01E7906F0030683
:102E2000022E13D190684F000326BE40B0434F00DE
:102E3000DE68BE4030439060506801268E40B0434B
:102E40001E79C6F300168E40304350601E7906F09E
:102E50000306032E09D0D0684F000326BE40B043BE
:102E60004F009E68BE403043D0601E7906F00306D6
:102E7000022E13D1CF0802F1200656F827004E0784
:102E8000F70E0F26BE40B0434F07FF0E1E69BE402F
:102E90003043CF0802F1200646F8270010684F00A3
:102EA0000326BE40B0431E7906F003064F00BE4025
:102EB000304310605E6806F44036002E75D000BFC7
:102EC000002600963B4E366846F48046394F3E60F9
:102ED0003E46366806F48046009600BF00BF364E78
:102EE0008F0856F827008E07370F0F26BE40B043D5
:102EF000324EB24202D1002624E056E0304EB242B9
:102F000001D101261EE02F4EB24201D1022619E066
:102F10002D4EB24201D1032614E02C4EB24201D113
:102F200004260FE02A4EB24201D105260AE0294EBE
:102F3000B24201D1062605E0274EB24201D1072652
:102F400000E008268F073F0FBE4030431A4E8F081F
:102F500046F82700214E3068A0435E6806F48036AC
:102F600006B120431D4E3060361D3068A0435E68B8
:102F700006F4003606B12043184E361D3060361D6B
:102F80003068A0435E6806F4801606B12043134EF5
:102F900008363060361D3068A0435E6806F40016BF
:102FA00006B120430D4E0C363060491C1029FFF449
:102FB00027AFF8BD44380240083801400000024005
:102FC0000004024000080240000C024000100240D1
:102FD0000014024000180240001C0240003C014066
:102FE0000AB1816101E00B04836170470148006808
:102FF0007047000070040020034800680349097806
:1030000008440149086070477004002078040020DB
:1030100010B50D48006840F400700B490860084680
:10302000006840F4806008600846006840F48070E2
:103030000860032000F0C6F8002000F007F800F058
:1030400049F8002010BD0000003C024070B588B077
:10305000044600250026002221461C2000F074F8BA
:103060001C2000F061F800BF0020019016480068A5
:1030700040F00100144908600846006800F00100B3
:10308000019000BF00BF02A903A800F071F900F091
:1030900097F945000D48B5FBF0F0461E4FF0804013
:1030A0000B49086040F2E7310948C16046600021E1
:1030B0000161816000F006FF20B9054800F066FF5D
:1030C00008B070BD0120FBE74038024040420F00CD
:1030D000880E002008B500BF00200090114800684D
:1030E00040F480400F4908600846006800F48040C2
:1030F000009000BF00BF00BF00200090081F0068C4
:1031000040F08050091F08600846006800F08050B9
:10311000009000BF00BF00220F21901E00F014F8A5
:1031200008BD00004438024001460846002809DB7B
:1031300000F01F0301229A4043099B0003F1E023A2
:10314000C3F8002100BF70472DE9F05F80460D46AF
:103150001646002705F03EFD074639462A46334607
:1031600001F00700C0F1070ABAF1040F02D94FF0CD
:10317000040A01E0C0F1070AD14600F1040ABAF1DD
:10318000070F02D24FF0000A01E0A0F1030AD44673
:103190004FF0010A0AFA09FAAAF1010A0AEA020A38
:1031A0000AFA0CFA4FF0010B0BFA0CFBABF1010B16
:1031B0000BEA030B4AEA0B042146404605F012FDD8
:1031C000BDE8F09F00BF00F00702064B19684FF6FC
:1031D000FF031940044B0B4343EA0221014B1960E2
:1031E00000BF70470CED00E00000FA0570B5044622
:1031F0000D460CB9012070BD5848006800F007006A
:10320000A84209D255490D700846006800F0070031
:10321000A84201D00120EEE7207800F00200022849
:103220001DD1207800F00400042805D14C48006826
:1032300040F4E0504A490860207800F0080008286F
:1032400005D14748006840F460404549086044485B
:10325000006820F0F000A168084341490860207828
:1032600000F00100A8B36068012807D13C48083885
:103270000068C0F34040B8B90120BCE7606802288C
:1032800002D06068032807D1354808380068C0F3C9
:10329000406048B90120AEE7314808380068C0F303
:1032A000400008B90120A6E72D48006820F003007F
:1032B000616808432A490860FFF798FE064609E05E
:1032C000FFF794FE801B41F28831884202D9032027
:1032D00091E707E02248006800F00C006168B0EB5D
:1032E000810FEDD11D48006800F00700A84209D900
:1032F0001A490D700846006800F00700A84201D086
:10330000012078E7207800F00400042807D1144851
:10331000006820F4E050E168084311490860207813
:1033200000F00800082808D10D48006820F460402B
:10333000216940EAC1000A49086000F061F80849C3
:103340000968C1F30311074A515CC8400649086087
:1033500006480068FFF77AFE00204CE7003C024078
:10336000083802400CC00008180000207404002037
:103370000F2202600D4A126802F0030242600B4AFB
:10338000126802F0F0028260084A126802F4E05209
:10339000C260064A126802F46042D2080261044A1E
:1033A000126802F007020A60704700000838024005
:1033B000003C0240014800687047000018000020EF
:1033C00000B5FFF7F7FF04490968C1F38221034AFA
:1033D000515CC84000BD0000083802401CC0000815
:1033E00000B5FFF7E7FF04490968C1F34231034A1A
:1033F000515CC84000BD0000083802401CC00008F5
:103400002DE9F047002400250026A1462548006844
:1034100000F00C0020B1042805D008283AD105E0BE
:10342000DFF8849039E0DFF8849036E01D48001F13
:10343000006800F03F041B48001F006800F4800093
:1034400078B11A481749091F0968C1F38811A0FB10
:1034500001700146224600233846FDF765FC05460B
:103460000EE011480F49091F0968C1F38811A0FB3C
:1034700001700146224600233846FDF755FC0546FB
:103480000848001F0068C0F30140401C4600B5FB1F
:10349000F6F902E0DFF8109000BF00BF4846BDE833
:1034A000F0870000083802400024F400001BB70039
:1034B000F8B504460CB90120F8BD207800F00100F1
:1034C000002874D0F948006800F00C0004280DD0E2
:1034D000F648006800F00C00082813D1F348001FDC
:1034E000006800F48000B0F5800F0BD1EF48083879
:1034F0000068C0F34040002859D06068002856D1C9
:103500000120D9E700BF6068B0F5803F08D1E748E7
:103510000838006840F48030E449083908601EE04B
:103520006068B0F5A02F0DD1E0480838006840F47D
:103530008020DE49083908600846006840F4803081
:1035400008600CE0D9480838006820F48030D7497A
:10355000083908600846006820F48020086000BF31
:10356000606890B1FFF742FD054606E0FFF73EFDBB
:10357000401B642801D903209EE7CC480838006826
:10358000C0F340400028F1D011E0FFF72FFD0546C1
:1035900006E0FFF72BFD401B642801D903208BE7D1
:1035A000C24808380068C0F340400028F1D12078B4
:1035B00000F0020002285FD1BC48006800F00C0057
:1035C00058B1BA48006800F00C0008281CD1B74870
:1035D000001F006800F48000B0B9B44808380068E3
:1035E000C0F3400020B1E068012801D0012063E76A
:1035F000AE480838006820F0F800216940EAC100B0
:10360000AA490839086037E0E06800B30120A849FA
:103610000860FFF7EBFC054606E0FFF7E7FC401B00
:10362000022801D9032047E7A04808380068C0F302
:1036300040000028F1D09D480838006820F0F800CC
:10364000216940EAC10099490839086014E0002066
:1036500097490860FFF7CAFC054606E0FFF7C6FC7D
:10366000401B022801D9032026E79048083800684B
:10367000C0F340000028F1D1207800F008000828AD
:103680002CD16069A8B101208A490860FFF7AEFC1F
:10369000054606E0FFF7AAFC401B022801D90320DB
:1036A0000AE782486C300068C0F340000028F1D07F
:1036B00014E000207F490860FFF798FC054606E00B
:1036C000FFF794FC401B022801D90320F4E6774859
:1036D0006C300068C0F340000028F1D1207800F081
:1036E0000400042870D1002770483830006800F0CA
:1036F000805090B900BF002000906C4838300068BE
:1037000040F080506949383108600846006800F090
:103710008050009000BF00BF01276748006800F498
:103720008070B0B96448006840F4807062490860F5
:10373000FFF75CFC054606E0FFF758FC401B02283B
:1037400001D90320B8E65C48006800F480700028C6
:10375000F2D000BFA068012808D154486830006842
:1037600040F001005149683108601DE0A06805285B
:103770000DD14E486830006840F004004B49683174
:1037800008600846006840F0010008600CE0474807
:103790006830006820F0010044496831086008463C
:1037A000006820F00400086000BFA068A8B1FFF71F
:1037B0001DFC054609E0FFF719FC401B41F288316A
:1037C000884202D9032077E626E03848683000684E
:1037D000C0F340000028EED013E0FFF707FC0546D9
:1037E00008E0FFF703FC401B41F28831884201D911
:1037F000032061E62D4868300068C0F340000028CF
:10380000EFD1012F07D129483830006820F08050CF
:1038100026493831086000BFA069002845D02348F8
:10382000006800F00C0008285DD0A069022845D18E
:1038300000201F490866FFF7D9FB054606E0FFF7A1
:10384000D5FB401B022801D9032035E6174808386C
:103850000068C0F340600028F1D1D4E907010843B3
:10386000616A40EA81110122A06AC2EB500041EA7C
:1038700000412C20005D41EA00600C49091F0860EE
:1038800001200B490866FFF7B1FB054606E0FFF78C
:10389000ADFB401B022801D903200DE60348083880
:1038A0000068C0F340600028F1D049E008380240C9
:1038B00000004742800E474200700040002021492E
:1038C0000866FFF793FB054606E0FFF78FFB401BFA
:1038D000022801D90320EFE51B480068C0F34060CF
:1038E0000028F2D12CE0A069012800D1E4E51648B7
:1038F000001D0668A069012820D006F48001E06957
:1039000081421BD106F03F01206A814216D147F661
:10391000C0703040616AB0EB811F0FD106F44031B6
:103920000122A06AC2EB5000B1EB004F06D106F0B5
:1039300070612C20005DB1EB006F01D00120BBE570
:103940000020B9E5000047420038024010B50446A7
:103950000CB9012010BD606A38B96068B0F5827F8B
:1039600000D105E00021E16102E0002121616161F7
:103970000021A16294F8510028B9002084F8500079
:10398000204600F047F8022084F8510020680068C3
:1039900020F0400021680860A08800F4827021892E
:1039A00001F404410843A18901F400610843217C2A
:1039B00001F002010843217D01F001010843218B40
:1039C00001F400710843217F01F0380108432021F0
:1039D000095D01F080010843218D01F40051084385
:1039E000216808600421A06901EA104094F82410BD
:1039F00001F010010843216848602068C06920F484
:103A000000602168C86100206065012084F85100D1
:103A100000209FE710B586B00446142101A8FDF7E9
:103A2000CDF94B49206888427ED100BF002000902C
:103A30004848006840F480504649086008460068DD
:103A400000F48050009000BF00BF00BF0020009035
:103A500040481438006840F002003E4914390860BC
:103A60000846006800F00200009000BF00BF00BFE1
:103A7000002000900846006840F0010008600846F9
:103A8000006800F00100009000BF00BF1820019006
:103A9000022002900120039003200490052005904D
:103AA00001A92D48FFF7A4F980200190022002907F
:103AB00001200390032004900520059001A92748C8
:103AC000FFF796F92648274908604FF0C060486024
:103AD000002124488160C1604FF4806101610021B0
:103AE00041618161C1614FF4403101620021416255
:103AF000FFF7E4F808B1FEF7D8FA00BF1948E06410
:103B0000846300BF16481830174908604FF0C06042
:103B100048604021144881600021C1604FF48061F9
:103B200001610021416100E010E08161C1614FF459
:103B30000031016200214162FFF7C0F808B1FEF7D1
:103B4000B4FA00BF0848A064846300BF06B010BD8B
:103B500000300140443802400004024000000240AE
:103B6000406402402C0C00208C0C00202DE9FF5FEB
:103B70000446884691461D460E9E01200290002074
:103B8000019000BF94F85000012803D1022004B036
:103B9000BDE8F09F012084F8500000BFFFF726FA2F
:103BA000074694F851B060680390AA46BBF1010F34
:103BB0000BD00398B0F5827F04D1A06810B9BBF197
:103BC000040F02D002200190DBE0B8F1000F03D017
:103BD000B9F1000F00D015B901200190D1E094F89F
:103BE0005100042802D0052084F8510000206065AF
:103BF000C4F83890E587A587C4F83080E586A586A7
:103C0000206460642068006800F04000402805D00F
:103C10002068006840F0400021680860E068B0F566
:103C2000006F4AD1606810B1BAF1010F09D1206B61
:103C300000882168C860206B801C2063E08E401ED5
:103C4000E08633E02068806800F00200022810D18E
:103C5000E08E70B1029801280BD1206B008821689A
:103C6000C860206B801C2063E08E401EE086002030
:103C700002902068806800F0010068B1E08F58B1C0
:103C80002068C068A16B0880A06B801CA063E08FD7
:103C9000401EE08701200290FFF7A8F9C01BB04248
:103CA00004D3701C10B1032001906AE0E08E00285C
:103CB000C8D1E08F0028C5D14AE0606810B1BAF1E0
:103CC000010F09D1206B007821680873206B401C1C
:103CD0002063E08E401EE08634E02068806800F0BB
:103CE0000200022810D1E08E70B1029801280BD199
:103CF000206B007821680873206B401C2063E08EE5
:103D0000401EE086002002902068806800F00100DC
:103D100068B1E08F58B12068C068A16B0870A06BD3
:103D2000401CA063E08F401EE08701200290FFF757
:103D30005DF9C01BB04201D3701C00B916B9032055
:103D400001901EE0E08E0028C7D1E08F0028C4D18A
:103D50003A463146204604F039F920B1012001905D
:103D6000202060650DE0A06850B900BF00200090E1
:103D70002068C068009020688068009000BF00BF85
:103D800000BF012084F8510000BF002084F85000DB
:103D900000BF0198FBE67047704710B5034600224C
:103DA00000BF93F83C00012801D1022010BD012082
:103DB00083F83C0000BF22F0FF00CC6840EA040218
:103DC00022F440708C6840EA040222F480604C685F
:103DD00040EA040222F400600C6840EA040222F483
:103DE00080500C6940EA040222F400504C6940EA19
:103DF000040222F48040CC6940EA0402186842645C
:103E000000BF002083F83C0000BF00BFCEE70000E9
:103E100030B502460B4600BF92F83C00012801D1A4
:103E2000022030BD012082F83C0000BF022082F851
:103E30003D00106844681068816824F070041868B8
:103E4000044310684460184D1068A8421BD01068E5
:103E5000B0F1804F17D0154D1068A84213D0144D03
:103E60001068A8420FD0134D1068A8420BD0124D15
:103E70001068A84207D0114D1068A84203D0104D19
:103E80001068A84205D121F08001586801431068EC
:103E90008160012082F83D0000BF002082F83C00D4
:103EA00000BF00BFBDE7000000000140000400406B
:103EB00000080040000C00400004014000400140A8
:103EC0000018004010B504460CB9012010BD94F84C
:103ED0003D0028B9002084F83C00204600F026F878
:103EE000022084F83D00211D206804F0B9F901206A
:103EF00084F8460000BF84F83E0001213F200155B0
:103F0000402001554120015500BF00BF012084F829
:103F1000420043200155442001554520015500BF72
:103F2000012084F83D000020D0E7000008B5144AC5
:103F3000016891420FD100BF002100911149096829
:103F400041F001010F4A11601146096801F00101B9
:103F5000009100BF13E00C4A016891420FD100BFED
:103F6000002100910749096841F40031054A1160B8
:103F70001146096801F40031009100BF00BF08BD7F
:103F8000000001404438024000440140014691F8DD
:103F90003D00012801D001207047022081F83D003A
:103FA0000868C06840F001000B68D8601A4B0868C8
:103FB00098421BD00868B0F1804F17D0174B0868A3
:103FC000984213D0164B086898420FD0154B0868DA
:103FD00098420BD0144B0868984207D0134B0868DE
:103FE000984203D0124B086898420CD10868806848
:103FF00000F00702062A0CD00868006840F00100B3
:104000000B68186005E00868006840F001000B6864
:1040100018600020C0E700000000014000040040DC
:1040200000080040000C0040000401400040014036
:10403000001800402DE9F04104460D46002700BF5E
:1040400094F83C00012802D10220BDE8F081012053
:1040500084F83C0000BF022084F83D002068866898
:1040600026F0770626F47F46206886602868502868
:1040700033D00CDC202850D004DC00284BD0102892
:1040800051D149E0302849D040284CD139E060284E
:104090002DD0702807D0B0F5805F03D0B0F5005F59
:1040A00041D10DE041E0D5E902136A68206804F0CF
:1040B00054F92068866846F077062068866034E008
:1040C000D5E902136A68206804F047F9206880681F
:1040D00040F480402168886027E0EA6869682068C9
:1040E00004F049FA5021206804F042F91DE0EA6822
:1040F0006968206804F052FA6021206804F038F9F9
:1041000013E0EA686968206804F035FA4021206805
:1041100004F02EF909E000BF00BF00BF2968206845
:1041200004F026F901E0012700BF00BF012084F858
:104130003D0000BF002084F83C0000BF384684E703
:10414000704710B5044620680069C0F34000D8B13C
:104150002068C068C0F34000B0B16FF00200216871
:104160000861012020772068806900F0030018B101
:104170002046FFF7E5FF05E0204600F023F9204642
:1041800000F0D7F90020207720680069C0F3800094
:10419000D8B12068C068C0F38000B0B16FF00400EF
:1041A00021680861022020772068806900F440704F
:1041B00018B12046FFF7C4FF05E0204600F002F9E1
:1041C000204600F0B6F90020207720680069C0F38F
:1041D000C000D8B12068C068C0F3C000B0B16FF0B3
:1041E000080021680861042020772068C06900F079
:1041F000030018B12046FFF7A3FF05E0204600F0BA
:10420000E1F8204600F095F9002020772068006949
:10421000C0F30010D8B12068C068C0F30010B0B17E
:104220006FF0100021680861082020772068C069BD
:1042300000F4407018B12046FFF782FF05E02046E9
:1042400000F0C0F8204600F074F9002020772068C4
:10425000006900F0010058B12068C06800F001005A
:1042600030B16FF0010021680861204600F0E8F9E4
:1042700020680069C0F3C01058B12068C068C0F35E
:10428000C01030B16FF08000216808612046FFF750
:1042900082FD20680069C0F3801058B12068C068B2
:1042A000C0F3801030B16FF04000216808612046F3
:1042B00000F0CFF920680069C0F3401058B12068C1
:1042C000C068C0F3401030B16FF020002168086171
:1042D0002046FFF761FD10BD10B586B004461421DD
:1042E00001A8FCF76BFD3149206888423AD100BF34
:1042F000002000902E48006840F001002C49086022
:104300000846006800F00100009000BF00BF00BF39
:10431000002000900846006840F010000860084641
:10432000006800F01000009000BF00BF88150190E9
:10433000022002900020039004900120059001A922
:104340001C48FEF755FD4FF40060019002200290DA
:104350000020039004900120059001A91648FEF763
:1043600047FD21E01549206888421DD100BF00208B
:1043700000900F48006840F020000D490860084692
:10438000006800F02000009000BF00BF40200190B6
:104390000220029001200390022004900320059047
:1043A00001A90748FEF724FD06B010BD000001403A
:1043B000303802400000024000100240004401403A
:1043C0000014024070472DE9F04104460D461646A0
:1043D000002700BF94F83C00012802D10220BDE86C
:1043E000F081012084F83C0000BF36B1042E1BD0C0
:1043F000082E31D00C2E5ED145E02946206803F00E
:10440000C1FF2068806940F0080021688861206849
:10441000806920F00400216888612068806929692A
:1044200008432168886148E02946206803F0E2FFDC
:104430002068806940F40060216888612068806994
:1044400020F480602168886120688069296940EAD9
:1044500001202168886130E02946206804F008F8CE
:104460002068C06940F008002168C8612068C06900
:1044700020F004002168C8612068C06929690843E8
:104480002168C86119E02946206804F02DF82068E9
:10449000C06940F400602168C8612068C06920F4E8
:1044A00080602168C8612068C069296940EA0120EC
:1044B0002168C86101E0012700BF00BF00BF0020E4
:1044C00084F83C0000BF384689E710B504460CB9B3
:1044D000012010BD94F83D0028B9002084F83C006C
:1044E000204600F025F8022084F83D00211D2068B8
:1044F00003F0B6FE012084F8460000BF84F83E00B9
:1045000001213F200155402001554120015500BFA8
:1045100000BF012084F8420043200155442001558A
:104520004520015500BF012084F83D000020D0E760
:104530007047704770B504460D4615B994F83E00B3
:104540000BE0042D02D13F20005D06E0082D02D1D2
:104550004020005D01E04120005D012801D00120E4
:1045600070BD1DB9022084F83E000EE0042D03D179
:1045700002213F20015508E0082D03D102214020EF
:10458000015502E0022141200155012229462068FF
:1045900003F0D2FE23492068884203D022492068D4
:1045A000884201D1012000E0002028B12068406C41
:1045B00040F40040216848641A49206888421BD0B2
:1045C0002068B0F1804F17D018492068884213D076
:1045D0001749206888420FD01649206888420BD0BE
:1045E00011492068884207D013492068884203D0C7
:1045F0001249206888420CD12068806800F00706C4
:10460000062E0CD02068006840F001002168086088
:1046100005E02068006840F0010021680860002083
:104620009EE700000000014000040140000400403B
:1046300000080040000C004000400140001800400D
:1046400010B504462068B0F1804F01D1FEF7D4FCCC
:1046500010BD7047704770472DE9F84F0446206839
:1046600005682068C668206847694FF00009CA4697
:1046700005F00F09B9F1000F0AD105F0200038B19B
:1046800006F0200020B1204603F0ECFFBDE8F88FD3
:10469000B9F1000F7CD007F0010018B906F4907052
:1046A000002875D005F0010030B106F4807018B113
:1046B000206C40F00100206405F0040030B107F0E8
:1046C000010018B1206C40F00200206405F00200E7
:1046D00030B107F0010018B1206C40F004002064F4
:1046E00005F0080048B106F0200010B907F00100FD
:1046F00018B1206C40F008002064206C002846D0DF
:1047000005F0200028B106F0200010B1204603F08B
:10471000A9FF20684069C0F3801A206C00F00800EF
:1047200010B9BAF1000F2DD0204603F055FF2068D4
:10473000406900F04000402820D100BF00BF216840
:10474000143151E8001F21F040002168143141E884
:104750000002002AF3D100BFA06B50B17548A16BD5
:104760000865A06BFEF795FA88B1A06B016D8847CC
:104770000DE02046FFF76FFF09E009E02046FFF754
:104780006AFF04E02046FFF766FF002020647DE713
:10479000206B012876D105F01000002872D006F0B9
:1047A00010000028FAD000BF0020009020680068A8
:1047B000009020684068009000BF00BF20684069FA
:1047C00000F0400040285ED1A06B006840681FFAEE
:1047D00080F8B8F1000F54D0A08D404551DDA4F809
:1047E0002E80A06BC069B0F5807F43D000BF00BFB2
:1047F00021680C3151E8001F21F4807021680C31D0
:1048000041E80002002AF3D100BF00BF00BF2168C9
:10481000143151E8001F21F001002168143141E8F2
:104820000002002AF3D100BF00BF00BF216814318D
:1048300051E8001F21F040002168143141E80002D6
:10484000002AF3D100BF202084F83E00002020631E
:1048500000BF00BF21680C3151E8001F21F010009B
:1048600021680C3141E80002002AF3D100BFA06B9F
:10487000FEF7B9F9A08DE28D801A81B22046FFF7CC
:10488000E9FE03E740E0A08DE18D401A1FFA80F8B1
:10489000E08DC0B3B8F1000F35D000BF00BF216874
:1048A0000C3151E8001F21F4907021680C3141E86F
:1048B0000002002AF3D100BF00BF00BF21681431FD
:1048C00051E8001F21F001002168143141E8000285
:1048D000002AF3D100BF202084F83E00002020638E
:1048E00000BF00BF21680C3151E8001F21F010000B
:1048F00021680C3141E80002002AF3D100BF414693
:104900002046FFF7A7FEC1E605F0800030B106F0B3
:10491000800018B1204604F05AF8B7E605F04000D0
:1049200030B106F0400018B1204603F08BFEADE632
:1049300000BFABE6C585000810B504460CB90120E0
:1049400010BDA06900B100E000BF94F83D0028B997
:10495000002084F83C00204600F028F8242084F849
:104960003D002068C06820F400502168C8602046DF
:1049700003F0F4FE2068006920F49040216808618B
:104980002068406920F02A00216848612068C068DA
:1049900040F400502168C86000202064202084F882
:1049A0003D0084F83E000020CAE7000010B586B044
:1049B0000446142101A8FCF701FA4D4920688842F9
:1049C00056D100BF002000904A48006840F0100017
:1049D000484908600846006800F01000009000BFD9
:1049E00000BF00BF0020009042481438006840F02B
:1049F00002004049143908600846006800F00200CF
:104A0000009000BF00BF00BF002000900846006873
:104A100040F0010008600846006800F001000090C6
:104A200000BF00BF80200190022002900020039070
:104A3000032004900720059001A92F48FEF7D8F91C
:104A40004FF4007001900220029000200390032098
:104A500004900720059001A92848FEF7C9F9002213
:104A600006212520FEF770FB2520FEF75DFB3CE0CC
:104A700023492068884238D100BF002000901D489B
:104A8000006840F020001B4908600846006800F0FC
:104A90002000009000BF00BF00BF0020009015481C
:104AA0001438006840F04000124914390860084684
:104AB000006800F04000009000BF00BF4FF4844049
:104AC000019002200290002003900320049008200F
:104AD000059001A90B48FEF78BF90022072147201A
:104AE000FEF732FB4720FEF71FFB06B010BD0000AB
:104AF000001001404438024000040240000002401F
:104B0000001401400018024070B504460D461646D8
:104B100094F83E00202816D105B10EB9012070BDD1
:104B200000BF94F83C00012801D10220F7E70120E2
:104B300084F83C0000BF002020633246294620460E
:104B400003F022FFEBE70220E9E7000070B504461E
:104B500025492068884222D124480088401C2349E6
:104B600008802348017821480088401E214A1154BA
:104B70001F4800780D280DD105F0C2F905462946D9
:104B80001C4803F0E1F90E211A48FCF717F9002040
:104B900016490880012216491748FFF7B5FF174943
:104BA000206888421ED116480088401C144908809D
:104BB0001448017812480088401E134A11541148C5
:104BC0000078212809D1012003F08AFF64210E48D2
:104BD000FCF7F4F800200A490880012209490B4833
:104BE000FFF792FF70BD0000001001400E00002092
:104BF0000C0000207C0D0020000E0020001401405D
:104C0000100000200D000020990D0020440E00200F
:104C10002DE9F84F04460E46174699464FF0000A14
:104C200094F83D0020285AD106B117B90120BDE8FB
:104C3000F88F00BF94F83C00012801D10220F6E76C
:104C4000012084F83C0000BF00202064212084F86B
:104C50003D00FEF7CBF98246A784E784A068B0F553
:104C6000805F04D1206910B90025B04602E03546C6
:104C70004FF0000800BF002084F83C0000BF1BE09C
:104C80005346002280212046CDF8009003F0CFFE4D
:104C900008B10320CBE745B9B8F80000C0F308001D
:104CA0002168486008F1020803E02878216848601C
:104CB0006D1CE08C401EE084E08C0028E0D153465F
:104CC000002240212046CDF8009003F0B0FE08B14C
:104CD0000320ACE7202084F83D000020A7E7022055
:104CE000A5E7704770B5044600202074A37B484DAB
:104CF0002D8803FB05F26168D4F8F400FCF745F851
:104D0000A27B434B1B8802FB03F16068FCF756F85B
:104D1000A27B3F4B1B885A43A37B02FB03F1D4F8D1
:104D20001801FCF74BF8227B394B1B885A43A37BB5
:104D300002FB03F1D4F80C01FCF740F8002031E04D
:104D4000D4F8F41001EB800191ED000AB5EEC00A31
:104D5000F1EE10FA24D0D4F8F41001EB800191EDBB
:104D6000000A227CD4F8F41001EB820181ED000AE4
:104D7000227C616A8854A16901EB800191ED000AEF
:104D80006169095C227B237C12FB0311491ED4F864
:104D90000C2102EB810181ED000A217C491C217468
:104DA000411CC8B2A17B8142CADC002011E0626ACA
:104DB000125CE16901EB820191ED000A227C00FBAB
:104DC0000202D4F8181101EB820181ED000A411CA6
:104DD000C8B2217C8142EADC207CA4F87800217BE7
:104DE0007A200153207BA4F88000217C822001538B
:104DF000207CA4F89000217C92200153207BA4F811
:104E00009800217C9A200153207CA4F8480070BDB2
:104E10001001002000BFFEE770B52DED088B86B0B5
:104E200004460D46164694ED040ACA48D0ED000A21
:104E300030EE600AB0EEC00ADFEDC70AB4EEE00A59
:104E4000F1EE10FA22DC94ED050AC448D0ED000A18
:104E500030EE600AB0EEC00ADFEDBF0AB4EEE00A41
:104E6000F1EE10FA12DC94ED060ABD48D0ED000A0E
:104E700030EE600AB0EEC00ADFEDB70AB4EEE00A29
:104E8000F1EE10FA02DC207800287DD094ED040ABF
:104E9000DFEDB40A80EE201AB0EE41BAB0EE4B0A54
:104EA000FBF7F0F9F0EE408A94ED050ADFEDAD0A6C
:104EB00080EE201AB0EE41BAB0EE4B0AFBF7E2F9F1
:104EC000F0EE40AA94ED060ADFEDA60A80EE201A65
:104ED000B0EE41BAB0EE4B0AFBF7D4F9B0EE409A0F
:104EE00094ED040ADFED9F0A80EE201AB0EE41BA7D
:104EF000B0EE4B0AFBF702FAB0EE40AA94ED050AB9
:104F0000DFED980A80EE201AB0EE41BAB0EE4B0AFF
:104F1000FBF7F4F9F0EE409A94ED060ADFED910A02
:104F200080EE201AB0EE41BAB0EE4B0AFBF7E6F97C
:104F3000B0EE408A68EE890A2AEE291AB0EE480AD5
:104F400041EE000A8848C0ED000A2AEE8A0A874826
:104F500080ED000AB0EE480A28EE800A69EE0A0ADF
:104F600000EEE90A824880ED000A68EEA90AB0EE78
:104F7000480A20EE800A09EE4A0A7E4880ED000ABF
:104F800028EEAA0A7C4800E021E080ED000AF1EE5C
:104F90004A0AB0EE480A20EE800A68EE890A00EE5E
:104FA000E90A764880ED000AF1EE6A0AB0EE480A96
:104FB00020EE800A724880ED000A7248C0ED009A27
:104FC0002AEE890A704880ED000A00202070002037
:104FD00011E005EB800191ED000A211D01EB80013C
:104FE000D1ED000A20EE200A03A901EB800181ED3A
:104FF000000A411CC8B20328EBDB9DED030A5A48A6
:10500000D0ED000A20EE200ADDED040A574890EDAD
:10501000001A01EE200ADDED050A554890ED001A50
:1050200001EE200A85ED000A9DED030A5148D0EDFE
:10503000000A20EE200ADDED040A4F4890ED001A28
:1050400001EE200ADDED050A4C4890ED001A01EE54
:10505000200A85ED010A9DED030A4948D0ED000ABA
:1050600020EE200ADDED040A464890ED001A01EE1C
:10507000200ADDED050A444890ED001A01EE200AF1
:1050800085ED020A00200AE006EB800191ED000A9E
:10509000694601EB800181ED000A411CC8B203287A
:1050A000F2DB9DED000A3048D0ED000A20EE200A28
:1050B000DDED010A2D4890ED001A01EE200ADDED2C
:1050C000020A2B4890ED001A01EE200A86ED000A34
:1050D0009DED000A2748D0ED000A20EE200ADDED04
:1050E000010A254890ED001A01EE200ADDED020AC2
:1050F000224890ED001A01EE200A86ED010A9DED8E
:10510000000A1F48D0ED000A20EE200ADDED010A5A
:105110001C4890ED001A01EE200ADDED020A1A4843
:1051200090ED001A01EE200A86ED020A94ED040AC1
:10513000084880ED000A94ED050A084880ED000A51
:1051400094ED060A064880ED000A06B0BDEC088B17
:1051500070BD0000340000206F12833A3800002038
:105160003C000020E12E6542400000204400002069
:10517000480000204C000020500000205400002077
:10518000580000205C0000206000002010B504469C
:1051900054F8EC0F90ED000A834880ED000A206877
:1051A00090ED010A814880ED000A206890ED020A26
:1051B0007F4880ED000A54F8EC0990ED030A7D4821
:1051C00080ED000A7848D0ED000A60EEA00A77482A
:1051D00090ED001AD0ED001A41EE210A744890EDCE
:1051E000001AD0ED001A41EE210A724890ED001A23
:1051F000D0ED001A41EE210AB0EE600A04F094FEF0
:105200006D4880ED000A002012E0D4F8EC1001EBAC
:10521000800191ED000A6849D1ED000A20EE200AD4
:10522000D4F8EC1001EB800181ED000A411CC8B2FA
:105230000428EADB614890ED6F0A5C48D0ED000A73
:1052400020EE200AF0EE000A80EE201AF834A06862
:1052500080ED041A594890ED6F0A5548D0ED000AC8
:1052600020EE200AF0EE000A80EE201AA06880ED01
:10527000051A524890ED6F0A4B48D0ED000AF1EE46
:10528000600A20EE200AF0EE000A80EE201AA068E4
:1052900080ED0A1A494890ED6F0A4648D0ED000AA1
:1052A00020EE200AF0EE000A80EE201AA06880EDC1
:1052B0000B1A424890ED6F0A3E48D0ED000AF1EE1D
:1052C000600A20EE200AF0EE000A80EE201AA068A4
:1052D00080ED101A394890ED6F0A3348D0ED000A7E
:1052E000F1EE600A20EE200AF0EE000A80EE201AAD
:1052F000A06880ED111A314890ED6F0A2C48D0ED6E
:10530000000A20EE200AF0EE000A80EE201AA068C3
:1053100080ED161A294890ED6F0A2448D0ED000A56
:10532000F1EE600A20EE200AF0EE000A80EE201A6C
:10533000A06880ED171A206890ED1C0A1F48D0ED78
:10534000740A80EE201A206880ED1C1A206890ED07
:10535000230A1A48D0ED740A80EE201A206880EDE6
:10536000231A54F8F80990ED1C0ADFED150AB4EE83
:10537000E00AF1EE10FA05DD9FED110AD4F8F8000D
:1053800080ED1C0AD4F8F80090ED230ADFED0C0A3A
:10539000B4EEE00AF1EE10FA05DD9FED090AD4F84B
:1053A000F80080ED230A10BD3C04002040040020DA
:1053B00044040020480400204C04002090140020E5
:1053C00000401C4610B52DED068BF0EE408AB0EE85
:1053D00060AAB0EE419AB0EE618AF0EE429A0120E6
:1053E0003A4908700846C0ED6C8A80ED6DAA80EDE0
:1053F0006E9A9FED370A80ED730A002081F838011C
:105400000A46C2F84001C2F844010021C2F848111E
:10541000C2F84C11B7EE000AB4EEC08AF1EE10FAF1
:1054200003DDB7EE000AB0EE408A284880ED748AAA
:10543000C0ED649A032300220621001D01F09CF8B0
:10544000244B01221146A3F10800FBF725F8B7EE23
:10545000000A1E48D0F8EC0080ED000A9FED1E0AFD
:105460001A48D0F8EC0080ED010A9FED1B0A17489E
:10547000D0F8EC0080ED020A9FED170A1348D0F82F
:10548000EC0080ED030A15491048C0F8D01014490B
:10549000C0F8D4101349C0F8D8101349C0F8DC1074
:1054A000012180F82E1080F82F1001469022D1F8AB
:1054B00004010E49FBF769FC04499022D1F8FC0075
:1054C0000B49FBF762FCBDEC068B10BD901400206D
:1054D00077CC2B325816002000000000F55400084D
:1054E0008D51000829550008855C000878C0000827
:1054F0009C03002010B5044654F8F81F902207487A
:10550000FBF743FC48220648616AFBF73EFC6169F1
:10551000F83C48220348FBF738FC10BD9C030020F0
:1055200070160020B816002010B5044654F8EC0F91
:1055300090ED000AF0EE000A20EE200A3F4880EDD0
:10554000000A206890ED010AF0EE000A20EE200A21
:105550003B4880ED000A206890ED020AF0EE000A58
:1055600020EE200A374880ED000A206890ED030AFB
:10557000F0EE000A20EE200A334880ED000A14F80D
:10558000DE2C324B1B885A4314F8E03C02FB03F13B
:10559000206AFBF713FC2B4890ED000AB1EE400A9D
:1055A000206A80ED000A284890ED000A206A80ED0C
:1055B000010A224890ED000AB1EE400A206A80ED0F
:1055C000020A1F4890ED000A206A80ED030A1C4879
:1055D00090ED000A206A80ED060A184890ED000A56
:1055E000206A80ED070A184890ED000A206A80EDD5
:1055F000080A144890ED000A206A80ED090A0F4855
:1056000090ED000A206A80ED0C0A0D4890ED000A2A
:10561000B1EE400A206A80ED0D0A0A4890ED000ABA
:10562000B1EE400A206A80ED0E0A074890ED000AAC
:10563000206AEC3C80ED0F0A10BD000050040020F1
:1056400054040020580400205C04002010010020B5
:1056500010B52DED088BB0EE40AAF0EE60AAB0EECA
:1056600041BAF0EE618AB0EE429AF0EE629AB0EE84
:10567000438AFE48007858B99FEDFD2AF7EE001ADC
:105680009FEDFC1ADFEDFC0AB2EE040AFFF79AFE6A
:10569000F64880ED6F8A90ED580A3AEE400A80EDA8
:1056A0005B0A90ED590A3AEEC00A80ED5C0A90ED73
:1056B0005A0A3BEE400A80ED5D0A90ED5B0AF6EE79
:1056C000000A20EE200A20EE080AEC4880ED000ACD
:1056D000E64890ED5C0AF6EE000A20EE200A20EE85
:1056E000080AE74880ED000AE04890ED5D0AF6EE12
:1056F000000A20EE200A20EE080AE24880ED000AA7
:10570000DA499022D1F80401DF49FBF73EFBDB4880
:1057100090ED000AB1EE400AD448D0F8040180EDC3
:10572000010AD74890ED000AB1EE400ACF48D0F800
:10573000040180ED020AD34890ED000AB1EE400A60
:10574000CA48D0F8040180ED030ACC4890ED000A65
:10575000C648D0F8040180ED060ACA4890ED000A58
:10576000C248D0F8040180ED080AC54890ED000A4F
:10577000B1EE400ABD48D0F8040180ED090AC048E6
:1057800090ED000AB948D0F8040180ED0C0ABD483C
:1057900090ED000AB1EE400AB448D0F8040180ED63
:1057A0000D0AB64890ED000AB048D0F8040180ED2B
:1057B0000F0AB44890ED000AAC48D0F8040180ED1F
:1057C000120AAF4890ED000AA848D0F8040180ED15
:1057D000130AAA4890ED000AB1EE400AA348D0F897
:1057E000040180ED140AA148D0F84811D0F84C010A
:1057F000002359405840014306D19C48C0ED5E8AC1
:1058000080ED5F9AC0ED609A984890ED5E0AD0ED09
:10581000640A60EE200A90ED6F0A90ED641A30EE93
:10582000011A80EE810AD0ED6F0A90ED641A70EED5
:10583000810A90ED6F1A21EE281AC1EE201A30EE7F
:10584000210A80ED5E0A90ED5F0AD0ED640A60EEF9
:10585000200A90ED6F0A90ED641A30EE011A80EE86
:10586000810AD0ED6F0A90ED641A70EE810A90ED16
:105870006F1A21EE091AC1EE201A30EE210A80EDCE
:105880005F0A90ED600AD0ED640A60EE200A90EDA8
:105890006F0A90ED641A30EE011A80EE810AD0EDA5
:1058A0006F0A90ED641A70EE810A90ED6F1A21EE86
:1058B000291AC1EE201A30EE210A80ED600AD0EDDF
:1058C0005E0A60EEA00A90ED5F1AD0ED5F1A41EE1D
:1058D000210A90ED601AD0ED601A41EE210AB0EE77
:1058E000600A04F021FB694880ED000A002011E005
:1058F000674901EB800191ED000A6449D1ED000A8E
:1059000020EE200A5949896801EB800181ED000AE7
:10591000411CC8B20328EBDB5448D0ED5B0A60EEB3
:10592000A00A90ED5C1AD0ED5C1A41EE210A90EDD0
:105930005D1AD0ED5D1A41EE210AB0EE600A04F066
:10594000F3FAF7EE000A80EE801A484880ED651AF7
:105950004E4890ED000AF7EE000A80EE801A4348A8
:1059600080ED661A90ED650ADFED4A0AB4EEE00AB2
:10597000F1EE10FA16D290ED660ADFED470AB4EEAA
:10598000E00AF1EE10FA0DDD90ED660ADFED430A54
:10599000B4EEE00AF1EE10FA04D20120334981F8A6
:1059A000390103E00020314981F839012F4890ED99
:1059B0006C0AD0ED6F0A20EE200AD0F8180180EDB5
:1059C000000A2A4890ED6C0AD0ED6F0A20EE200AFA
:1059D000D0F8180180ED070A244890ED6C0AD0ED4C
:1059E0006F0A20EE200AD0F8180180ED0E0A1F4839
:1059F00090ED6C0AD0ED6F0A20EE200AD0F8180165
:105A000080ED150A194890ED6D0AD0ED6F0A20EE71
:105A1000200AD0F8180180ED1C0A144890ED6D0A98
:105A2000D0ED6F0A20EE200AD0F8180180ED230A8D
:105A30000E4890ED6E0AD0F81C0180ED000A0B486C
:105A400090ED6E0AD0F81C0180ED040A074890ED35
:105A50006E0AD0F81C0180ED080A0448001D01F010
:105A60000BFA0248406890ED000A19E090140020FB
:105A7000000000008096184B6F12833A2C0400201F
:105A8000300400203404002078C0000838040020CE
:105A9000081600209A99993ECDCC1441CDCC2441D2
:105AA000734880ED540A406890ED010A704880ED1B
:105AB000550A406890ED020A6D4880ED560A40682C
:105AC00090ED030A6A4880ED570A406890ED040A99
:105AD000674880ED580A406890ED050A644880EDFB
